{
  "transactions": [
    {
      "hash": "0x9663f15aa548c251edfbfb94c595a8e725ef8ec5d4930787ddb3e11d0471057c",
      "transactionType": "CALL",
      "contractName": "HelperConfig",
      "contractAddress": "0xC7f2Cf4845C6db0e1a1e91ED41Bcd0FcC1b0E141",
      "function": "getConfig()",
      "arguments": [],
      "transaction": {
        "from": "0x88f0807bF33B15BdF234fa2c92B469F665881BCe",
        "to": "0xC7f2Cf4845C6db0e1a1e91ED41Bcd0FcC1b0E141",
        "gas": "0x71a6",
        "value": "0x0",
        "input": "0xc3f909d4",
        "nonce": "0x4d",
        "chainId": "0x14a34"
      },
      "additionalContracts": [],
      "isFixedGasLimit": false
    },
    {
      "hash": "0x4de2a0a3269c2f4e04f074d2fac0b9efdd10e3df9a4f1d223fa884e88f5ddc3b",
      "transactionType": "CALL",
      "contractName": "HelperConfig",
      "contractAddress": "0xC7f2Cf4845C6db0e1a1e91ED41Bcd0FcC1b0E141",
      "function": "getConfig()",
      "arguments": [],
      "transaction": {
        "from": "0x88f0807bF33B15BdF234fa2c92B469F665881BCe",
        "to": "0xC7f2Cf4845C6db0e1a1e91ED41Bcd0FcC1b0E141",
        "gas": "0x71a6",
        "value": "0x0",
        "input": "0xc3f909d4",
        "nonce": "0x4e",
        "chainId": "0x14a34"
      },
      "additionalContracts": [],
      "isFixedGasLimit": false
    },
    {
      "hash": "0x2d3049beee220ba0717e0982b5647960fe5d2d1332221f03d0fc9c420c6176ad",
      "transactionType": "CALL",
      "contractName": null,
      "contractAddress": "0x012714Ec1bCc94c4c9E00CD914D4602f079494E0",
      "function": "handleOps((address,uint256,bytes,bytes,bytes32,uint256,bytes32,bytes,bytes)[],address)",
      "arguments": [
        "[(0x9aFE1680b9A0916e0697bcBc7C75dC868b70b6F4, 0, 0x, 0xb61d27f6000000000000000000000000c57471afe46fe934fd60f8f8e6dcbb796285b97d000000000000000000000000000000000000000000000000000000000000000000000000000000000000000000000000000000000000000000000000000000600000000000000000000000000000000000000000000000000000000000000044095ea7b300000000000000000000000088f0807bf33b15bdf234fa2c92b469f665881bce0000000000000000000000000000000000000000000000000de0b6b3a764000000000000000000000000000000000000000000000000000000000000, 0x0000000000000000000000000100000000000000000000000000000001000000, 16777216, 0x0000000000000000000000000000010000000000000000000000000000000100, 0x, 0xfb71f309a3ee097b48584cc5c1c583d791b59e72dea17da85c0a469a36fb584e621ae219b998611c01f58c461f0c5003b2d9c4290282c119569a97291297dcaa1c)]",
        "0x88f0807bF33B15BdF234fa2c92B469F665881BCe"
      ],
      "transaction": {
        "from": "0x88f0807bF33B15BdF234fa2c92B469F665881BCe",
        "to": "0x012714Ec1bCc94c4c9E00CD914D4602f079494E0",
        "gas": "0x27058",
        "value": "0x0",
        "input": "0x765e827f000000000000000000000000000000000000000000000000000000000000004000000000000000000000000088f0807bf33b15bdf234fa2c92b469f665881bce000000000000000000000000000000000000000000000000000000000000000100000000000000000000000000000000000000000000000000000000000000200000000000000000000000009afe1680b9a0916e0697bcbc7c75dc868b70b6f400000000000000000000000000000000000000000000000000000000000000000000000000000000000000000000000000000000000000000000000000000120000000000000000000000000000000000000000000000000000000000000014000000000000000000000000001000000000000000000000000000000010000000000000000000000000000000000000000000000000000000000000001000000000000000000000000000000000001000000000000000000000000000000010000000000000000000000000000000000000000000000000000000000000002600000000000000000000000000000000000000000000000000000000000000280000000000000000000000000000000000000000000000000000000000000000000000000000000000000000000000000000000000000000000000000000000e4b61d27f6000000000000000000000000c57471afe46fe934fd60f8f8e6dcbb796285b97d000000000000000000000000000000000000000000000000000000000000000000000000000000000000000000000000000000000000000000000000000000600000000000000000000000000000000000000000000000000000000000000044095ea7b300000000000000000000000088f0807bf33b15bdf234fa2c92b469f665881bce0000000000000000000000000000000000000000000000000de0b6b3a7640000000000000000000000000000000000000000000000000000000000000000000000000000000000000000000000000000000000000000000000000000000000000000000000000000000000000000000000000000000000000000000000000000000000000000000000000000000000000000000000000041fb71f309a3ee097b48584cc5c1c583d791b59e72dea17da85c0a469a36fb584e621ae219b998611c01f58c461f0c5003b2d9c4290282c119569a97291297dcaa1c00000000000000000000000000000000000000000000000000000000000000",
        "nonce": "0x4f",
        "chainId": "0x14a34"
      },
      "additionalContracts": [],
      "isFixedGasLimit": false
    }
  ],
  "receipts": [
    {
      "status": "0x1",
      "cumulativeGasUsed": "0x455663",
      "logs": [],
      "logsBloom": "0x00000000000000000000000000000000000000000000000000000000000000000000000000000000000000000000000000000000000000000000000000000000000000000000000000000000000000000000000000000000000000000000000000000000000000000000000000000000000000000000000000000000000000000000000000000000000000000000000000000000000000000000000000000000000000000000000000000000000000000000000000000000000000000000000000000000000000000000000000000000000000000000000000000000000000000000000000000000000000000000000000000000000000000000000000000000",
      "type": "0x2",
      "transactionHash": "0x9663f15aa548c251edfbfb94c595a8e725ef8ec5d4930787ddb3e11d0471057c",
      "transactionIndex": "0x17",
      "blockHash": "0x624a4fef85a4165cee47571bfe3cd4441ac0d6b62815101683cd446e77803e99",
      "blockNumber": "0xfb8929",
      "gasUsed": "0x5248",
      "effectiveGasPrice": "0x9c4528a",
      "from": "0x88f0807bF33B15BdF234fa2c92B469F665881BCe",
      "to": "0xC7f2Cf4845C6db0e1a1e91ED41Bcd0FcC1b0E141",
      "contractAddress": null,
      "l1BaseFeeScalar": "0x44d",
      "l1BlobBaseFee": "0x1",
      "l1BlobBaseFeeScalar": "0xa118b",
      "l1Fee": "0x100c83d8db",
      "l1GasPrice": "0x91c43676d",
      "l1GasUsed": "0x640"
    },
    {
      "status": "0x1",
      "cumulativeGasUsed": "0x45a8ab",
      "logs": [],
      "logsBloom": "0x00000000000000000000000000000000000000000000000000000000000000000000000000000000000000000000000000000000000000000000000000000000000000000000000000000000000000000000000000000000000000000000000000000000000000000000000000000000000000000000000000000000000000000000000000000000000000000000000000000000000000000000000000000000000000000000000000000000000000000000000000000000000000000000000000000000000000000000000000000000000000000000000000000000000000000000000000000000000000000000000000000000000000000000000000000000",
      "type": "0x2",
      "transactionHash": "0x4de2a0a3269c2f4e04f074d2fac0b9efdd10e3df9a4f1d223fa884e88f5ddc3b",
      "transactionIndex": "0x18",
      "blockHash": "0x624a4fef85a4165cee47571bfe3cd4441ac0d6b62815101683cd446e77803e99",
      "blockNumber": "0xfb8929",
      "gasUsed": "0x5248",
      "effectiveGasPrice": "0x9c4528a",
      "from": "0x88f0807bF33B15BdF234fa2c92B469F665881BCe",
      "to": "0xC7f2Cf4845C6db0e1a1e91ED41Bcd0FcC1b0E141",
      "contractAddress": null,
      "l1BaseFeeScalar": "0x44d",
      "l1BlobBaseFee": "0x1",
      "l1BlobBaseFeeScalar": "0xa118b",
      "l1Fee": "0x100c83d8db",
      "l1GasPrice": "0x91c43676d",
      "l1GasUsed": "0x640"
    }
  ],
  "libraries": [],
  "pending": [],
  "returns": {},
  "timestamp": 1728737593,
  "chain": 84532,
  "commit": "024c4b2"
}