{
  "transactions": [
    {
      "hash": "0xff82589a4d20126bab9eff72cd89fe9347cf77e68945943aabc839eb1856ca35",
      "transactionType": "CALL",
      "contractName": "HelperConfig",
      "contractAddress": "0xC7f2Cf4845C6db0e1a1e91ED41Bcd0FcC1b0E141",
      "function": "getConfig()",
      "arguments": [],
      "transaction": {
        "from": "0x88f0807bF33B15BdF234fa2c92B469F665881BCe",
        "to": "0xC7f2Cf4845C6db0e1a1e91ED41Bcd0FcC1b0E141",
        "gas": "0x71a6",
        "value": "0x0",
        "input": "0xc3f909d4",
        "nonce": "0x51",
        "chainId": "0x14a34"
      },
      "additionalContracts": [],
      "isFixedGasLimit": false
    },
    {
      "hash": "0x2c48213e7b87026982b07feef6612a20c79d9e7741f306977c0ce9066c0ddf3c",
      "transactionType": "CALL",
      "contractName": "HelperConfig",
      "contractAddress": "0xC7f2Cf4845C6db0e1a1e91ED41Bcd0FcC1b0E141",
      "function": "getConfig()",
      "arguments": [],
      "transaction": {
        "from": "0x88f0807bF33B15BdF234fa2c92B469F665881BCe",
        "to": "0xC7f2Cf4845C6db0e1a1e91ED41Bcd0FcC1b0E141",
        "gas": "0x71a6",
        "value": "0x0",
        "input": "0xc3f909d4",
        "nonce": "0x52",
        "chainId": "0x14a34"
      },
      "additionalContracts": [],
      "isFixedGasLimit": false
    },
    {
      "hash": "0x1dfb6c66a9f04a31ffefe75cbe29059c2a928f837aa5e25a4536e3cc010d0704",
      "transactionType": "CALL",
      "contractName": null,
      "contractAddress": "0x012714Ec1bCc94c4c9E00CD914D4602f079494E0",
      "function": "handleOps((address,uint256,bytes,bytes,bytes32,uint256,bytes32,bytes,bytes)[],address)",
      "arguments": [
        "[(0x9aFE1680b9A0916e0697bcBc7C75dC868b70b6F4, 0, 0x, 0xb61d27f6000000000000000000000000c57471afe46fe934fd60f8f8e6dcbb796285b97d000000000000000000000000000000000000000000000000000000000000000000000000000000000000000000000000000000000000000000000000000000600000000000000000000000000000000000000000000000000000000000000044095ea7b300000000000000000000000088f0807bf33b15bdf234fa2c92b469f665881bce0000000000000000000000000000000000000000000000000de0b6b3a764000000000000000000000000000000000000000000000000000000000000, 0x0000000000000000000000000100000000000000000000000000000001000000, 16777216, 0x0000000000000000000000000000010000000000000000000000000000000100, 0x, 0xfb71f309a3ee097b48584cc5c1c583d791b59e72dea17da85c0a469a36fb584e621ae219b998611c01f58c461f0c5003b2d9c4290282c119569a97291297dcaa1c)]",
        "0x88f0807bF33B15BdF234fa2c92B469F665881BCe"
      ],
      "transaction": {
        "from": "0x88f0807bF33B15BdF234fa2c92B469F665881BCe",
        "to": "0x012714Ec1bCc94c4c9E00CD914D4602f079494E0",
        "gas": "0x27058",
        "value": "0x0",
        "input": "0x765e827f000000000000000000000000000000000000000000000000000000000000004000000000000000000000000088f0807bf33b15bdf234fa2c92b469f665881bce000000000000000000000000000000000000000000000000000000000000000100000000000000000000000000000000000000000000000000000000000000200000000000000000000000009afe1680b9a0916e0697bcbc7c75dc868b70b6f400000000000000000000000000000000000000000000000000000000000000000000000000000000000000000000000000000000000000000000000000000120000000000000000000000000000000000000000000000000000000000000014000000000000000000000000001000000000000000000000000000000010000000000000000000000000000000000000000000000000000000000000001000000000000000000000000000000000001000000000000000000000000000000010000000000000000000000000000000000000000000000000000000000000002600000000000000000000000000000000000000000000000000000000000000280000000000000000000000000000000000000000000000000000000000000000000000000000000000000000000000000000000000000000000000000000000e4b61d27f6000000000000000000000000c57471afe46fe934fd60f8f8e6dcbb796285b97d000000000000000000000000000000000000000000000000000000000000000000000000000000000000000000000000000000000000000000000000000000600000000000000000000000000000000000000000000000000000000000000044095ea7b300000000000000000000000088f0807bf33b15bdf234fa2c92b469f665881bce0000000000000000000000000000000000000000000000000de0b6b3a7640000000000000000000000000000000000000000000000000000000000000000000000000000000000000000000000000000000000000000000000000000000000000000000000000000000000000000000000000000000000000000000000000000000000000000000000000000000000000000000000000041fb71f309a3ee097b48584cc5c1c583d791b59e72dea17da85c0a469a36fb584e621ae219b998611c01f58c461f0c5003b2d9c4290282c119569a97291297dcaa1c00000000000000000000000000000000000000000000000000000000000000",
        "nonce": "0x53",
        "chainId": "0x14a34"
      },
      "additionalContracts": [],
      "isFixedGasLimit": false
    }
  ],
  "receipts": [
    {
      "status": "0x1",
      "cumulativeGasUsed": "0x1edd12",
      "logs": [],
      "logsBloom": "0x00000000000000000000000000000000000000000000000000000000000000000000000000000000000000000000000000000000000000000000000000000000000000000000000000000000000000000000000000000000000000000000000000000000000000000000000000000000000000000000000000000000000000000000000000000000000000000000000000000000000000000000000000000000000000000000000000000000000000000000000000000000000000000000000000000000000000000000000000000000000000000000000000000000000000000000000000000000000000000000000000000000000000000000000000000000",
      "type": "0x2",
      "transactionHash": "0xff82589a4d20126bab9eff72cd89fe9347cf77e68945943aabc839eb1856ca35",
      "transactionIndex": "0xf",
      "blockHash": "0x0fd34bdbf88588c5c86d0ef2901007722cc2e3c3553faac701643d50d31cecec",
      "blockNumber": "0xfb8c57",
      "gasUsed": "0x5248",
      "effectiveGasPrice": "0xa0ef15d",
      "from": "0x88f0807bF33B15BdF234fa2c92B469F665881BCe",
      "to": "0xC7f2Cf4845C6db0e1a1e91ED41Bcd0FcC1b0E141",
      "contractAddress": null,
      "l1BaseFeeScalar": "0x44d",
      "l1BlobBaseFee": "0x1",
      "l1BlobBaseFeeScalar": "0xa118b",
      "l1Fee": "0xaef2561d6",
      "l1GasPrice": "0x634fab694",
      "l1GasUsed": "0x640"
    },
    {
      "status": "0x1",
      "cumulativeGasUsed": "0x27c441",
      "logs": [],
      "logsBloom": "0x00000000000000000000000000000000000000000000000000000000000000000000000000000000000000000000000000000000000000000000000000000000000000000000000000000000000000000000000000000000000000000000000000000000000000000000000000000000000000000000000000000000000000000000000000000000000000000000000000000000000000000000000000000000000000000000000000000000000000000000000000000000000000000000000000000000000000000000000000000000000000000000000000000000000000000000000000000000000000000000000000000000000000000000000000000000",
      "type": "0x2",
      "transactionHash": "0x2c48213e7b87026982b07feef6612a20c79d9e7741f306977c0ce9066c0ddf3c",
      "transactionIndex": "0x10",
      "blockHash": "0xdedb531ef1fdeb025ceaa702efec7b5445839854b4a6ef601cb686321c38be72",
      "blockNumber": "0xfb8c58",
      "gasUsed": "0x5248",
      "effectiveGasPrice": "0xa095798",
      "from": "0x88f0807bF33B15BdF234fa2c92B469F665881BCe",
      "to": "0xC7f2Cf4845C6db0e1a1e91ED41Bcd0FcC1b0E141",
      "contractAddress": null,
      "l1BaseFeeScalar": "0x44d",
      "l1BlobBaseFee": "0x1",
      "l1BlobBaseFeeScalar": "0xa118b",
      "l1Fee": "0xaef2561d6",
      "l1GasPrice": "0x634fab694",
      "l1GasUsed": "0x640"
    }
  ],
  "libraries": [],
  "pending": [],
  "returns": {},
  "timestamp": 1728739223,
  "chain": 84532,
  "commit": "024c4b2"
}