{
  "transactions": [
    {
      "hash": "0x9a967be96fb195647f85dca398a6ad2bd14f5cd0dcadb5a2f05d59f6b71d4c39",
      "transactionType": "CALL",
      "contractName": null,
      "contractAddress": "0x32bd7647043e3b72e2ba5492c74a7887600b2f99",
      "function": "mintNft(string)",
      "arguments": [
        "ipfs://bafybeig37ioir76s7mg5oobetncojcm3c3hxasyd4rvid4jqhy4gkaheg4/?filename=0-PUG.json"
      ],
      "transaction": {
        "from": "0x88f0807bf33b15bdf234fa2c92b469f665881bce",
        "to": "0x32bd7647043e3b72e2ba5492c74a7887600b2f99",
        "gas": "0x3d60d",
        "value": "0x0",
        "input": "0xda86f4a900000000000000000000000000000000000000000000000000000000000000200000000000000000000000000000000000000000000000000000000000000057697066733a2f2f62616679626569673337696f6972373673376d67356f6f6265746e636f6a636d3363336878617379643472766964346a71687934676b61686567342f3f66696c656e616d653d302d5055472e6a736f6e000000000000000000",
        "nonce": "0x28",
        "chainId": "0xaa36a7"
      },
      "additionalContracts": [],
      "isFixedGasLimit": false
    }
  ],
  "receipts": [
    {
      "status": "0x1",
      "cumulativeGasUsed": "0x119449a",
      "logs": [
        {
          "address": "0x32bd7647043e3b72e2ba5492c74a7887600b2f99",
          "topics": [
            "0xddf252ad1be2c89b69c2b068fc378daa952ba7f163c4a11628f55a4df523b3ef",
            "0x0000000000000000000000000000000000000000000000000000000000000000",
            "0x00000000000000000000000088f0807bf33b15bdf234fa2c92b469f665881bce",
            "0x0000000000000000000000000000000000000000000000000000000000000000"
          ],
          "data": "0x",
          "blockHash": "0xb4e222182dc82b96cefdc9ad4e92c36cef4e9511337bd07bdfa0d258422285bb",
          "blockNumber": "0x652c37",
          "transactionHash": "0x9a967be96fb195647f85dca398a6ad2bd14f5cd0dcadb5a2f05d59f6b71d4c39",
          "transactionIndex": "0x6c",
          "logIndex": "0xaa",
          "removed": false
        }
      ],
      "logsBloom": "0x00000000000000000000000000000000000000000000000000000000000000000000000000000000000000008000000000000000000000000000000000000000000000000000000000000008000000000000000000000000000000000000000000000000020000000000000000000800000000000000000000000010000000000000000000000000000000000000000000000000000000000000000000010000000000000000000400001000000000000000000000000000000000000000000000000002000000000000000000000000000000000000000000000000008020000000000000000000000000000000000000000000000000000080000000000000",
      "type": "0x2",
      "transactionHash": "0x9a967be96fb195647f85dca398a6ad2bd14f5cd0dcadb5a2f05d59f6b71d4c39",
      "transactionIndex": "0x6c",
      "blockHash": "0xb4e222182dc82b96cefdc9ad4e92c36cef4e9511337bd07bdfa0d258422285bb",
      "blockNumber": "0x652c37",
      "gasUsed": "0x2c6fe",
      "effectiveGasPrice": "0xe691c9f21",
      "from": "0x88f0807bf33b15bdf234fa2c92b469f665881bce",
      "to": "0x32bd7647043e3b72e2ba5492c74a7887600b2f99",
      "contractAddress": null
    }
  ],
  "libraries": [],
  "pending": [],
  "returns": {},
  "timestamp": 1725440929,
  "chain": 11155111,
  "commit": "8c17118"
}