{
  "transactions": [
    {
      "hash": "0x7932843b2b214e17a631cd356f012fd73e067319f37a8976ba3dc9bdbd73b19d",
      "transactionType": "CALL",
      "contractName": null,
      "contractAddress": "0x95262d3a93f27ed052884f3eee39375b820c1814",
      "function": "claim(address,uint256,bytes32[],uint8,bytes32,bytes32)",
      "arguments": [
        "0x67cE8bb909F266AFC7F27BE8a3302C18a7f5Ca14",
        "25000000000000000000",
        "[0x9458ea849fe18c5a746ca3855ddd0e444ecc1adf5391b75659bc1ae54571acab, 0xe5ebd1e1b5a5478a944ecab36a9a954ac3b6b8216875f6524caa7a1d87096576]",
        "27",
        "0x8f317bddf3dfe8c49f3878b3174b54f81970f86548b0ba1b1705c953f7bb5038",
        "0x692fd1b2b715b78526d96ec6b7850c7bde8dd4b27ee39b558d20053deb406bf8"
      ],
      "transaction": {
        "from": "0x88f0807bf33b15bdf234fa2c92b469f665881bce",
        "to": "0x95262d3a93f27ed052884f3eee39375b820c1814",
        "gas": "0x1f51a",
        "value": "0x0",
        "input": "0x4497a16900000000000000000000000067ce8bb909f266afc7f27be8a3302c18a7f5ca140000000000000000000000000000000000000000000000015af1d78b58c4000000000000000000000000000000000000000000000000000000000000000000c0000000000000000000000000000000000000000000000000000000000000001b8f317bddf3dfe8c49f3878b3174b54f81970f86548b0ba1b1705c953f7bb5038692fd1b2b715b78526d96ec6b7850c7bde8dd4b27ee39b558d20053deb406bf800000000000000000000000000000000000000000000000000000000000000029458ea849fe18c5a746ca3855ddd0e444ecc1adf5391b75659bc1ae54571acabe5ebd1e1b5a5478a944ecab36a9a954ac3b6b8216875f6524caa7a1d87096576",
        "nonce": "0x32",
        "chainId": "0x14a34"
      },
      "additionalContracts": [],
      "isFixedGasLimit": false
    }
  ],
  "receipts": [
    {
      "status": "0x1",
      "cumulativeGasUsed": "0x59dd9a",
      "logs": [
        {
          "address": "0x95262d3a93f27ed052884f3eee39375b820c1814",
          "topics": [
            "0x47cee97cb7acd717b3c0aa1435d004cd5b3c8c57d70dbceb4e4458bbd60e39d4"
          ],
          "data": "0x00000000000000000000000067ce8bb909f266afc7f27be8a3302c18a7f5ca140000000000000000000000000000000000000000000000015af1d78b58c40000",
          "blockHash": "0xc6236eb1bcb4dc54f44879cfffd70ed87765335d67a169a242a9ea3e6037ea9c",
          "blockNumber": "0xf3bb72",
          "transactionHash": "0x7932843b2b214e17a631cd356f012fd73e067319f37a8976ba3dc9bdbd73b19d",
          "transactionIndex": "0x5",
          "logIndex": "0x69",
          "removed": false
        },
        {
          "address": "0x6e4d95af6f2a8b1b48769b7ef2d5012cc5d4f568",
          "topics": [
            "0xddf252ad1be2c89b69c2b068fc378daa952ba7f163c4a11628f55a4df523b3ef",
            "0x00000000000000000000000095262d3a93f27ed052884f3eee39375b820c1814",
            "0x00000000000000000000000067ce8bb909f266afc7f27be8a3302c18a7f5ca14"
          ],
          "data": "0x0000000000000000000000000000000000000000000000015af1d78b58c40000",
          "blockHash": "0xc6236eb1bcb4dc54f44879cfffd70ed87765335d67a169a242a9ea3e6037ea9c",
          "blockNumber": "0xf3bb72",
          "transactionHash": "0x7932843b2b214e17a631cd356f012fd73e067319f37a8976ba3dc9bdbd73b19d",
          "transactionIndex": "0x5",
          "logIndex": "0x6a",
          "removed": false
        }
      ],
      "logsBloom": "0x00000000000000800000000000000000000000000000000080000000000000000100000000000000000200000000000000000010000000000100000000000000000000000000000040000008000000000000000000000000000000000000001000000000000000000000000000000000000000000400000000000010000000000000000000000000000000000000000000000000000000000000000000000000000000000000000000000020000000000000000000020010080000000000000000000002000000000000000000000000000000000000000100000000000000000000000000001000000000000000000000000000000000000000000000000000",
      "type": "0x2",
      "transactionHash": "0x7932843b2b214e17a631cd356f012fd73e067319f37a8976ba3dc9bdbd73b19d",
      "transactionIndex": "0x5",
      "blockHash": "0xc6236eb1bcb4dc54f44879cfffd70ed87765335d67a169a242a9ea3e6037ea9c",
      "blockNumber": "0xf3bb72",
      "gasUsed": "0x156a3",
      "effectiveGasPrice": "0xb7ee4",
      "from": "0x88f0807bf33b15bdf234fa2c92b469f665881bce",
      "to": "0x95262d3a93f27ed052884f3eee39375b820c1814",
      "contractAddress": null,
      "l1BaseFeeScalar": "0x44d",
      "l1BlobBaseFee": "0x2948",
      "l1BlobBaseFeeScalar": "0xa118b",
      "l1Fee": "0xa7f528b718",
      "l1GasPrice": "0x2ad5afbfec",
      "l1GasUsed": "0xde9"
    }
  ],
  "libraries": [],
  "pending": [],
  "returns": {},
  "timestamp": 1727714762,
  "chain": 84532,
  "commit": "7f21c95"
}