{
  "transactions": [
    {
      "hash": "0x2764299058123b9e2e069e089af23a0d3492d13eb2491d80d17d18d6c79cb53c",
      "transactionType": "CREATE",
      "contractName": "BoxV2",
      "contractAddress": "0xadf363fe4b4cdda6cd2f5d2814bb7803e981ab29",
      "function": null,
      "arguments": null,
      "transaction": {
        "from": "0x88f0807bf33b15bdf234fa2c92b469f665881bce",
        "gas": "0xd000f",
        "value": "0x0",
        "input": "0x60a06040523060805234801561001457600080fd5b5061001d610022565b6100d4565b7ff0c57e16840df040f15088dc2f81fe391c3923bec73e23a9662efc9c229c6a00805468010000000000000000900460ff16156100725760405163f92ee8a960e01b815260040160405180910390fd5b80546001600160401b03908116146100d15780546001600160401b0319166001600160401b0390811782556040519081527fc7f505b2f371ae2175ee4913f4499e1f2633a7b5936321eed1cdaeb6115181d29060200160405180910390a15b50565b608051610a6d6100fd600039600081816103a0015281816103c9015261050f0152610a6d6000f3fe6080604052600436106100915760003560e01c80638129fc1c116100595780638129fc1c1461011c5780638da5cb5b14610131578063ad3cb1cc14610178578063f2c9ecd8146101b6578063f2fde38b146101cb57600080fd5b80633fb5c1cb146100965780634f1ef286146100b857806352d1902d146100cb57806354fd4d50146100f3578063715018a614610107575b600080fd5b3480156100a257600080fd5b506100b66100b136600461085b565b600055565b005b6100b66100c63660046108a6565b6101eb565b3480156100d757600080fd5b506100e061020a565b6040519081526020015b60405180910390f35b3480156100ff57600080fd5b5060026100e0565b34801561011357600080fd5b506100b6610227565b34801561012857600080fd5b506100b661023b565b34801561013d57600080fd5b507f9016d09d72d40fdae2fd8ceac6b6234c7706214fd39c1cd1e609a0528c199300546040516001600160a01b0390911681526020016100ea565b34801561018457600080fd5b506101a9604051806040016040528060058152602001640352e302e360dc1b81525081565b6040516100ea9190610994565b3480156101c257600080fd5b506000546100e0565b3480156101d757600080fd5b506100b66101e63660046109c7565b610352565b6101f3610395565b6101fc8261043a565b6102068282610442565b5050565b6000610214610504565b50600080516020610a1883398151915290565b61022f61054d565b61023960006105a8565b565b7ff0c57e16840df040f15088dc2f81fe391c3923bec73e23a9662efc9c229c6a008054600160401b810460ff16159067ffffffffffffffff166000811580156102815750825b905060008267ffffffffffffffff16600114801561029e5750303b155b9050811580156102ac575080155b156102ca5760405163f92ee8a960e01b815260040160405180910390fd5b845467ffffffffffffffff1916600117855583156102f457845460ff60401b1916600160401b1785555b6102fd33610619565b61030561062a565b831561034b57845460ff60401b19168555604051600181527fc7f505b2f371ae2175ee4913f4499e1f2633a7b5936321eed1cdaeb6115181d29060200160405180910390a15b5050505050565b61035a61054d565b6001600160a01b03811661038957604051631e4fbdf760e01b8152600060048201526024015b60405180910390fd5b610392816105a8565b50565b306001600160a01b037f000000000000000000000000000000000000000000000000000000000000000016148061041c57507f00000000000000000000000000000000000000000000000000000000000000006001600160a01b0316610410600080516020610a18833981519152546001600160a01b031690565b6001600160a01b031614155b156102395760405163703e46dd60e11b815260040160405180910390fd5b61039261054d565b816001600160a01b03166352d1902d6040518163ffffffff1660e01b8152600401602060405180830381865afa92505050801561049c575060408051601f3d908101601f19168201909252610499918101906109e2565b60015b6104c457604051634c9c8ce360e01b81526001600160a01b0383166004820152602401610380565b600080516020610a1883398151915281146104f557604051632a87526960e21b815260048101829052602401610380565b6104ff8383610632565b505050565b306001600160a01b037f000000000000000000000000000000000000000000000000000000000000000016146102395760405163703e46dd60e11b815260040160405180910390fd5b3361057f7f9016d09d72d40fdae2fd8ceac6b6234c7706214fd39c1cd1e609a0528c199300546001600160a01b031690565b6001600160a01b0316146102395760405163118cdaa760e01b8152336004820152602401610380565b7f9016d09d72d40fdae2fd8ceac6b6234c7706214fd39c1cd1e609a0528c19930080546001600160a01b031981166001600160a01b03848116918217845560405192169182907f8be0079c531659141344cd1fd0a4f28419497f9722a3daafe3b4186f6b6457e090600090a3505050565b610621610688565b610392816106d1565b610239610688565b61063b826106d9565b6040516001600160a01b038316907fbc7cd75a20ee27fd9adebab32041f755214dbc6bffa90cc0225b39da2e5c2d3b90600090a2805115610680576104ff828261073e565b6102066107b4565b7ff0c57e16840df040f15088dc2f81fe391c3923bec73e23a9662efc9c229c6a0054600160401b900460ff1661023957604051631afcd79f60e31b815260040160405180910390fd5b61035a610688565b806001600160a01b03163b60000361070f57604051634c9c8ce360e01b81526001600160a01b0382166004820152602401610380565b600080516020610a1883398151915280546001600160a01b0319166001600160a01b0392909216919091179055565b6060600080846001600160a01b03168460405161075b91906109fb565b600060405180830381855af49150503d8060008114610796576040519150601f19603f3d011682016040523d82523d6000602084013e61079b565b606091505b50915091506107ab8583836107d3565b95945050505050565b34156102395760405163b398979f60e01b815260040160405180910390fd5b6060826107e8576107e382610832565b61082b565b81511580156107ff57506001600160a01b0384163b155b1561082857604051639996b31560e01b81526001600160a01b0385166004820152602401610380565b50805b9392505050565b8051156108425780518082602001fd5b604051630a12f52160e11b815260040160405180910390fd5b60006020828403121561086d57600080fd5b5035919050565b80356001600160a01b038116811461088b57600080fd5b919050565b634e487b7160e01b600052604160045260246000fd5b600080604083850312156108b957600080fd5b6108c283610874565b9150602083013567ffffffffffffffff8111156108de57600080fd5b8301601f810185136108ef57600080fd5b803567ffffffffffffffff81111561090957610909610890565b604051601f8201601f19908116603f0116810167ffffffffffffffff8111828210171561093857610938610890565b60405281815282820160200187101561095057600080fd5b816020840160208301376000602083830101528093505050509250929050565b60005b8381101561098b578181015183820152602001610973565b50506000910152565b60208152600082518060208401526109b3816040850160208701610970565b601f01601f19169190910160400192915050565b6000602082840312156109d957600080fd5b61082b82610874565b6000602082840312156109f457600080fd5b5051919050565b60008251610a0d818460208701610970565b919091019291505056fe360894a13ba1a3210667c828492db98dca3e2076cc3735a920a3ca505d382bbca26469706673582212208af1ac55d2a49d28cc6cb77cff74e9c0d7d1a986ebf23657a666affbebccfe7064736f6c634300081a0033",
        "nonce": "0x36",
        "chainId": "0x14a34"
      },
      "additionalContracts": [],
      "isFixedGasLimit": false
    },
    {
      "hash": "0x52c05facb9c17b379c92702966e2c8ba266f9924719e673f86939bc2bb60de94",
      "transactionType": "CALL",
      "contractName": null,
      "contractAddress": "0xf054db64911fc66e6ba9a787964b69da0efe20e9",
      "function": "upgradeToAndCall(address,bytes)",
      "arguments": [
        "0xADf363fe4b4CDdA6Cd2f5D2814Bb7803e981AB29",
        "0x"
      ],
      "transaction": {
        "from": "0x88f0807bf33b15bdf234fa2c92b469f665881bce",
        "to": "0xf054db64911fc66e6ba9a787964b69da0efe20e9",
        "gas": "0xbea4",
        "value": "0x0",
        "input": "0x4f1ef286000000000000000000000000adf363fe4b4cdda6cd2f5d2814bb7803e981ab2900000000000000000000000000000000000000000000000000000000000000400000000000000000000000000000000000000000000000000000000000000000",
        "nonce": "0x37",
        "chainId": "0x14a34"
      },
      "additionalContracts": [],
      "isFixedGasLimit": false
    }
  ],
  "receipts": [
    {
      "status": "0x1",
      "cumulativeGasUsed": "0xf5d4d",
      "logs": [
        {
          "address": "0xadf363fe4b4cdda6cd2f5d2814bb7803e981ab29",
          "topics": [
            "0xc7f505b2f371ae2175ee4913f4499e1f2633a7b5936321eed1cdaeb6115181d2"
          ],
          "data": "0x000000000000000000000000000000000000000000000000ffffffffffffffff",
          "blockHash": "0x1623e33d64487e1a7ee783cc962078259fc690e6beb12250abcf78704b22837f",
          "blockNumber": "0xf4d84d",
          "transactionHash": "0x2764299058123b9e2e069e089af23a0d3492d13eb2491d80d17d18d6c79cb53c",
          "transactionIndex": "0x5",
          "logIndex": "0x5",
          "removed": false
        }
      ],
      "logsBloom": "0x00000000000000000000000000000000000000000000000000000000000000000000000000000000000000000000000000000000000000000000000000000000000000000000000000000000000000000000000000000000000000000000000000000000000000000000800000000000000000000000002000000000000000000000000000000000000800000000000000000000000080000000000000000000000000000000000000000000000000000000000000000000000000000000000000000000000000000000000000000000000000000004000000000010000000000000000000000000000000000000000000000000000000000000000000000000",
      "type": "0x2",
      "transactionHash": "0x2764299058123b9e2e069e089af23a0d3492d13eb2491d80d17d18d6c79cb53c",
      "transactionIndex": "0x5",
      "blockHash": "0x1623e33d64487e1a7ee783cc962078259fc690e6beb12250abcf78704b22837f",
      "blockNumber": "0xf4d84d",
      "gasUsed": "0xa00c4",
      "effectiveGasPrice": "0xf4347",
      "from": "0x88f0807bf33b15bdf234fa2c92b469f665881bce",
      "to": null,
      "contractAddress": "0xadf363fe4b4cdda6cd2f5d2814bb7803e981ab29",
      "l1BaseFeeScalar": "0x44d",
      "l1BlobBaseFee": "0x1",
      "l1BlobBaseFeeScalar": "0xa118b",
      "l1Fee": "0x6b20cc3ab1e",
      "l1GasPrice": "0x385a837168",
      "l1GasUsed": "0x6be9"
    },
    {
      "status": "0x1",
      "cumulativeGasUsed": "0x60601",
      "logs": [
        {
          "address": "0xf054db64911fc66e6ba9a787964b69da0efe20e9",
          "topics": [
            "0xbc7cd75a20ee27fd9adebab32041f755214dbc6bffa90cc0225b39da2e5c2d3b",
            "0x000000000000000000000000adf363fe4b4cdda6cd2f5d2814bb7803e981ab29"
          ],
          "data": "0x",
          "blockHash": "0xa161c6eb0cdb5e73f273c77b49e75b961ee0b3ee37b8517a05514cf2afc11307",
          "blockNumber": "0xf4d84e",
          "transactionHash": "0x52c05facb9c17b379c92702966e2c8ba266f9924719e673f86939bc2bb60de94",
          "transactionIndex": "0x6",
          "logIndex": "0x4",
          "removed": false
        }
      ],
      "logsBloom": "0x00000000000000000000000000000000400000000000000000000000000000000000000000020000000020000000000000000000000000000000000000000000000000000000000000000000000002000000000000000000000000000000000000000000000000000000000000000000000000000000000000000000000000000000000000000000000000000000000000000000000000000000000000000000000000004000800000000000000000000000000000000000000800000000000000000020000000000000000000000000000000000000000000000000008000000000000000000000000000000000000000000000000000000000000000000000",
      "type": "0x2",
      "transactionHash": "0x52c05facb9c17b379c92702966e2c8ba266f9924719e673f86939bc2bb60de94",
      "transactionIndex": "0x6",
      "blockHash": "0xa161c6eb0cdb5e73f273c77b49e75b961ee0b3ee37b8517a05514cf2afc11307",
      "blockNumber": "0xf4d84e",
      "gasUsed": "0x8a06",
      "effectiveGasPrice": "0xf4347",
      "from": "0x88f0807bf33b15bdf234fa2c92b469f665881bce",
      "to": "0xf054db64911fc66e6ba9a787964b69da0efe20e9",
      "contractAddress": null,
      "l1BaseFeeScalar": "0x44d",
      "l1BlobBaseFee": "0x1",
      "l1BlobBaseFeeScalar": "0xa118b",
      "l1Fee": "0x6345bf0026",
      "l1GasPrice": "0x385a837168",
      "l1GasUsed": "0x640"
    }
  ],
  "libraries": [],
  "pending": [],
  "returns": {
    "0": {
      "internal_type": "address",
      "value": "0xF054dB64911FC66e6ba9a787964b69da0efe20E9"
    }
  },
  "timestamp": 1727860634,
  "chain": 84532,
  "commit": "49668b8"
}